:100000000C9468010C9499010C9499010C94990139
:100010000C9499010C9499010C9499010C949901F8
:100020000C9499010C9499010C9499010C949901E8
:100030000C9499010C9499010C9499010C949901D8
:100040000C9499010C9499010C9499010C949901C8
:100050000C9499010C9499010C9499010C94D0077B
:100060000C9499010C949A070C9470070C949901C4
:100070000C9499010C9499010C9499010C94990198
:100080000C9499010C9499010C9499010C94990188
:100090000C9499010C9499010C9499010C94990178
:1000A0000C9499010C9499010C9499010C94990168
:1000B0000C9499010C9499010C9499010C94990158
:1000C0000C9499010C9499010C9499010C94990148
:1000D0000C9499010C9499010C9499010C94990138
:1000E0000C94990108000000BE922449123EABAA6C
:1000F000AA2ABECDCCCC4C3E00000080BEABAAAA42
:10010000AA3E00000000BF000000803F0000000089
:1001100000084178D3BB4387D1133D190E3CC3BDC2
:100120004282AD2B3E68EC8276BED98FE1A93E4C6F
:1001300080EFFFBE01C4FF7F3F00000000000C9471
:1001400008030C9432030C941A080C9428030C94A2
:10015000C8010C9425040C94F7020C94EB010C9448
:100160002E030C9431020C94FF020C947E020C942A
:10017000F9010C949B010C94FB020C9420030C9449
:1001800016030C941A030C942D030C94F8050C948C
:100190000C030C94F3020C9412030C9426040C949C
:1001A000ED020C9424030C94D7010C94020300007C
:1001B0002100240027002A002D0030003300010117
:1001C0000000040107010A010000220025002800A8
:1001D0002B002E003100340002010000050108014F
:1001E0000B01000020002300260029002C002F0016
:1001F00032000001000003010601090105050505A3
:10020000070508080808020202020A0A080804048E
:1002100004040101010101010101030303030303BC
:100220000303040707070C0C0C0C0C0C0C0C02024B
:10023000020206060606060606060B0B0B0B0B0B48
:100240000B0B0102102020080810204010204080D5
:10025000020102010804020101020408102040808A
:100260008040201008040201800402018040201018
:100270000804020108040201010204081020408061
:10028000010204081020408000000A0B02090C0D36
:100290000E08070304010000000000000000000039
:1002A000000000000000000000000000000000004E
:1002B000000000001211100000000000000000000B
:1002C00000000000000000000000000000001A080C
:1002D00011241FBECFEFD1E2DEBFCDBF00E00CBFC7
:1002E00012E0A0E0B2E0E0ECFAE100E00BBF02C0F7
:1002F00007900D92A637B107D9F723E0A6E7B2E041
:1003000001C01D92A634B207E1F711E0C8E6D1E0C2
:1003100000E006C021970109802FFE010E94560DC2
:10032000C736D10780E00807A9F70E9464080C943B
:100330005E0D0C940000AF92BF92CF92DF92EF92CD
:10034000FF920F931F93CF93DF936C017B018B017F
:10035000040F151FEB015E01AE18BF08C017D107CF
:1003600059F06991D601ED91FC910190F081E02D59
:10037000C6011995892B79F7C501DF91CF911F919E
:100380000F91FF90EF90DF90CF90BF90AF900895C6
:10039000FC01538D448D252F30E0842F90E0821B8B
:1003A000930B541710F0CF96089501970895FC0110
:1003B000918D828D981761F0A28DAE0FBF2FB11D68
:1003C0005D968C91928D9F5F9F73928F90E00895C0
:1003D0008FEF9FEF0895FC01918D828D981731F07A
:1003E000828DE80FF11D858D90E008958FEF9FEFCE
:1003F0000895FC01918D228D892F90E0805C9F4FA4
:10040000821B91098F739927089581E992E00E94D8
:10041000F90121E0892B09F420E0822F0895FC01E5
:10042000A48DA80FB92FB11DA35ABF4F2C91848D55
:1004300090E001968F739927848FA689B7892C93B2
:10044000A089B1898C91837080648C93938D848D05
:10045000981306C00288F389E02D80818F7D808308
:100460000895EF92FF920F931F93CF93DF93EC01C8
:1004700081E0888F9B8D8C8D98131AC0E889F9894B
:10048000808185FF15C09FB7F894EE89FF8960834E
:10049000E889F98980818370806480839FBF81E0CF
:1004A00090E0DF91CF911F910F91FF90EF90089511
:1004B000F62E0B8D10E00F5F1F4F0F731127E02EEC
:1004C0008C8D8E110CC00FB607FCFACFE889F98924
:1004D000808185FFF5CFCE010E940F02F1CFEB8D19
:1004E000EC0FFD2FF11DE35AFF4FF0829FB7F894F8
:1004F0000B8FEA89FB8980818062CFCFCF93DF9316
:10050000EC01888D8823B9F0AA89BB89E889F9892B
:100510008C9185FD03C0808186FD0DC00FB607FC60
:10052000F7CF8C9185FFF2CF808185FFEDCFCE0193
:100530000E940F02E9CFDF91CF91089580E090E013
:10054000892B29F00E94050281110E94000080E0A1
:1005500090E0892B49F080E090E0892B29F00E94FF
:10056000000081110E94000080E090E0892B49F09A
:1005700080E090E0892B29F00E94000081110E9408
:10058000000080E090E0892B49F080E090E0892B2A
:1005900029F00E94000081110C9400000895815000
:1005A000823108F05AC0E82FF0E08827E552FD4F6D
:1005B0008F4F0C94560DFB02FF02ED02F302F7027F
:1005C0002D03020308030C03120316031A0320036E
:1005D00024032D0328032E033203809180008F779C
:1005E000809380000895809180008F7DF9CF809165
:1005F0008000877FF5CF84B58F7784BD089584B55B
:100600008F7DFBCF8091B0008F778093B0000895ED
:100610008091B0008F7DF9CF809190008F7780938B
:1006200090000895809190008F7DF9CF8091900087
:10063000877FF5CF8091A0008F778093A0000895E9
:100640008091A0008F7DF9CF8091A000877FF5CFAA
:10065000809120018F77809320010895809120015F
:100660008F7DF9CF80912001877FF5CFCF93DF93E6
:10067000282F30E0F901E857FD4F8491F901EE5B36
:10068000FD4FD491F901E450FE4FC491CC23A1F069
:1006900081110E94CF02EC2FF0E0EE0FFF1FEE5110
:1006A000FE4FA591B491EC91ED2381E090E009F427
:1006B00080E0DF91CF91089580E090E0FACF1F9322
:1006C000CF93DF93282F30E0F901E857FD4F849155
:1006D000F901EE5BFD4FD491F901E450FE4FC49156
:1006E000CC23A9F0162F81110E94CF02EC2FF0E04D
:1006F000EE0FFF1FE853FE4FA591B4918FB7F8940A
:10070000EC91111108C0D095DE23DC938FBFDF91EF
:10071000CF911F910895DE2BF8CFCF93DF9390E018
:10072000FC01EE5BFD4F249184509E4FFC018491AF
:100730008823D1F090E0880F991FFC01E255FE4F0D
:10074000A591B491FC01E853FE4FC591D49161117C
:100750000EC09FB7F8948C91E22FE0958E238C9376
:100760002881E223E8839FBFDF91CF9108958FB75F
:10077000F894EC91E22BEC938FBFF6CF3FB7F8944F
:1007800080917B0290917C02A0917D02B0917E02CB
:1007900026B5A89B05C02F3F19F00196A11DB11DDC
:1007A0003FBFBA2FA92F982F8827BC01CD01620F18
:1007B000711D811D911D42E0660F771F881F991FD3
:1007C0004A95D1F708958F929F92AF92BF92CF92A0
:1007D000DF92EF92FF920E94BE034B015C0188EE14
:1007E000C82E83E0D82EE12CF12C0E94BE0368199C
:1007F00079098A099B09683E734081059105A8F330
:1008000021E0C21AD108E108F10888EE880E83E0E1
:10081000981EA11CB11CC114D104E104F10429F7F4
:10082000FF90EF90DF90CF90BF90AF909F908F9010
:1008300008952FB7F89460917702709178028091B3
:10084000790290917A022FBF0895089590E080E098
:1008500008958091810290918202019771F48091B4
:10086000000290910102813D27E0920734F4885301
:100870009F4F909301028093000280918302909198
:100880008402019769F48091000290910102883CF2
:10089000910534F0885C91099093010280930002E5
:1008A0000895FC0101900020E9F73197AF01481B42
:1008B000590BBC018EE293E00C949B018F929F92A6
:1008C000AF92BF920F931F93CF93DF93CDB7DEB755
:1008D000A1970FB6F894DEBF0FBECDBF19A242306C
:1008E00008F44AE08E010F5D1F4F842E912CB12C2D
:1008F000A12CA50194010E94340DE62FB901CA0173
:10090000EA30F4F4E05DD801EE938D01232B242B23
:10091000252B79F790E080E0109719F0CD010E9427
:100920005104A1960FB6F894DEBF0FBECDBFDF9184
:10093000CF911F910F91BF90AF909F908F9008958E
:10094000E95CE1CF0C945104CF93DF93EC0160E0BC
:100950008E810E945F0361E08E810E945F0360E0F0
:100960008E810E945F038BE891E00197F1F7DF91A0
:10097000CF910895CF92DF92EF92FF920F931F9342
:10098000CF93DF936C017C0187E0E80EF11CD0E08F
:10099000C0E0062F10E0B8010C2E02C075956795D7
:1009A0000A94E2F76170F70181917F010E945F0371
:1009B0002196C430D10579F7C601DF91CF911F91FF
:1009C0000F91FF90EF90DF90CF900C94A404CF9202
:1009D000DF92EF92FF920F931F93CF93DF93EC017F
:1009E000F62E642F8C810E945F038D818F3F19F05A
:1009F00060E00E945F030F2D10E08F8584FF25C00B
:100A00006E0187E0C80ED11CF12CE12CB8010E2C30
:100A100002C0759567950A94E2F76170F6018191BD
:100A20006F010E945F03FFEFEF1AFF0A88E0E816EC
:100A3000F10461F7CE01DF91CF911F910F91FF90EB
:100A4000EF90DF90CF900C94A404B80184E07595EA
:100A500067958A95E1F7CE010E94BA046F2DCE0109
:100A6000DF91CF911F910F91FF90EF90DF90CF908A
:100A70000C94BA0440E0682F8EE293E00C94E704F3
:100A800081E00E943A058BE39FE10197F1F7089519
:100A9000CF93DF93823029F490913D039860909337
:100AA0003D03809341031092420380E4809343030B
:100AB00080E18093440380E58093450361E0809169
:100AC00032030E948D03809133038F3F19F061E060
:100AD0000E948D0361E0809134030E948D03CEE279
:100AE000D3E09E012E52334080913D0384FD0BC024
:100AF00084E090E021962817390744F461E08E8164
:100B00000E948D03EECF88E090E0F4CF8BE39DE070
:100B10000197F1F760E0809132030E945F0360E08B
:100B2000809134030E945F03809133038F3F19F05B
:100B300060E00E945F0380913D0384FD34C063E068
:100B40008EE293E00E94BA04CBE4D6E4CE01019792
:100B5000F1F763E08EE293E00E94BA042197F1F787
:100B600063E08EE293E00E94BA0483E592E001978D
:100B7000F1F762E08EE293E00E94BA0480913D03B7
:100B800080620E943A0584E080933E038CE00E94DC
:100B90003A050E94400582E080933F0386E0DF91A2
:100BA000CF910C943A0580620E943A058BE496E45A
:100BB0000197F1F780913D0380620E943A0583E539
:100BC00092E00197F1F780913D0380620E943A051F
:100BD000D5CF90914103691710F06FEF690FE62FA1
:100BE000F0E0E25DFC4F9489890F80680C943A052F
:100BF00041E00E94E70481E090E00895CF92DF9207
:100C0000EF92FF926C01990FEE08FF08F7FE16C0F5
:100C100041E06DE28EE293E00E94E70466277727C9
:100C2000CB016C197D098E099F094AE00E945E0480
:100C30000196FF90EF90DF90CF9008954AE0C701B2
:100C4000B601FF90EF90DF90CF900C945E044F922E
:100C50005F926F927F928F929F92AF92BF92CF924C
:100C6000DF92EF92FF9280917B00877F80937B00E1
:100C700080E480937C0080917A00806480937A0085
:100C800080917A0086FDFCCF809178006091790098
:100C9000762F682F7093800260937F02072E000CDE
:100CA000880B990B0E94880B20E030E040EA50E46A
:100CB0000E948D0C20E030EC4FE754E40E94E50ADE
:100CC0009B01AC0160E070E080E291E40E94E50AE3
:100CD00020E030E040EA50E40E948D0C20E030E05B
:100CE00040E251E40E94730A20E030E04AE754E415
:100CF0000E948D0C0E94450C6B017C0129E537E4B4
:100D00004CEB53E30E948D0CA70196010E948D0CC1
:100D1000A70196010E948D0C4B015C0123E73FE780
:100D200045E759E3C701B6010E948D0C2BEE3FEF5A
:100D300043E95AE30E94740A9B01AC01C501B40166
:100D40000E94740A9B01AC0160E070E080E89FE3C0
:100D50000E94E50A23E333E948E853E40E94730A5A
:100D600020E030E040EA52E40E94740A6B017C010A
:100D70004B015C010E944005A7019601C701B60125
:100D80000E94FA0C8823B1F080E292E00E945104A4
:100D90008CE292E00E94A204FF90EF90DF90CF904F
:100DA000BF90AF909F908F907F906F905F904F908B
:100DB0000C94E30326013701E89477F82FEF3FEF17
:100DC0004FE75FE7C301B2010E94FA0C81110DC029
:100DD0002FEF3FEF4FE75FE7C301B2010E94E00A48
:100DE00018161CF484E292E0D1CF2FEF3FEF4FE7CB
:100DF0005FE4C701B6010E94380C18161CF488E2A3
:100E000092E0C4CF2FEF3FEF4FE75FECC701B60191
:100E10000E94E00A87FDF3CF20E030E0A901C7017E
:100E2000B6010E94E00A87FF0CC041E06DE28EE24D
:100E300093E00E94E70446015701B7FAB094B7F86F
:100E4000B0942AE037ED43EA5BE3C501B4010E94A8
:100E5000740A4B015C010E94570B6B017C010E94DC
:100E6000860B9B01AC01C501B4010E94730A4B01C2
:100E70005C014AE0C701B6010E945E0441E06EE2F7
:100E80008EE293E00E94E70420E030E040E251E48B
:100E9000C501B4010E948D0C4B015C010E94570BEF
:100EA0006B01F12CE12C4AE0C701B6010E945E04FF
:100EB000C701B6010E94860B9B01AC01C501B401BC
:100EC0000E94730A20E030E040E251E40E948D0C61
:100ED0000E94570B90E080E04AE00E945E0458CFE9
:100EE0001F920F920FB60F9211240BB60F922F93F1
:100EF0003F934F935F936F937F938F939F93AF93A2
:100F0000BF93EF93FF9381E992E00E940F02FF915C
:100F1000EF91BF91AF919F918F917F916F915F9171
:100F20004F913F912F910F900BBE0F900FBE0F90DE
:100F30001F9018951F920F920FB60F9211240BB6A7
:100F40000F922F938F939F93EF93FF93E091A102C2
:100F5000F091A2028081E091A702F091A80282FDA7
:100F60001DC090818091AA028F5F8F732091AB0288
:100F7000821741F0E091AA02F0E0EF56FD4F958F05
:100F80008093AA02FF91EF919F918F912F910F90E3
:100F90000BBE0F900FBE0F901F9018958081F2CF5F
:100FA0001F920F920FB60F9211242F933F938F939E
:100FB0009F93AF93BF938091770290917802A09115
:100FC0007902B0917A023091760223E0230F2D3717
:100FD00058F50196A11DB11D2093760280937702EA
:100FE00090937802A0937902B0937A0280917B0269
:100FF00090917C02A0917D02B0917E020196A11D8C
:10100000B11D80937B0290937C02A0937D02B093EC
:101010007E02BF91AF919F918F913F912F910F9041
:101020000FBE0F901F90189526E8230F0296A11D62
:10103000B11DD2CFE1E9F2E01382128288EE93E093
:10104000A0E0B0E084839583A683B78386E092E036
:101050009183808385EC90E09587848784EC90E091
:101060009787868780EC90E0918B808B81EC90E075
:10107000938B828B82EC90E0958B848B86EC90E056
:10108000978B868B118E128E138E148EEEE2F3E008
:101090001382128288E192E0918380838CE08483C2
:1010A0008FEF85838BE0868385E0878384E080876C
:1010B00083E0818782E082871386148615861686F0
:1010C000178681E00C944805789484B5826084BDCD
:1010D00084B5816084BD85B5826085BD85B581603C
:1010E00085BD80916E00816080936E0010928100BA
:1010F0008091810082608093810080918100816075
:101100008093810080918000816080938000809135
:10111000B10084608093B1008091B00081608093C1
:10112000B000809191008260809391008091910045
:101130008160809391008091900081608093900005
:101140008091A10082608093A1008091A1008160C4
:101150008093A1008091A00081608093A000809185
:10116000210182608093210180912101816080931F
:1011700021018091200181608093200180917A007B
:10118000846080937A0080917A00826080937A00F4
:1011900080917A00816080937A0080917A008068E3
:1011A00080937A001092C10082E00E94480587E394
:1011B00092E00E94A2040E94E30360E086E00E94A5
:1011C0008D0360E087E00E948D0360E088E00E946C
:1011D0008D0360E089E00E948D0360E08AE00E9458
:1011E0008D0360E08DE00E948D0360E085E30E9446
:1011F0008D0360E08BE20E948D0360E080917F02AE
:101200000E948D0361E082E30E948D0361E088E12A
:101210000E948D03E091A102F091A20282E08083FE
:10122000E0919D02F0919E021082E0919F02F09168
:10123000A0028FEC80831092A902E091A502F091A8
:10124000A60286E08083E091A302F091A40280814F
:1012500080618083E091A302F091A4028081886084
:101260008083E091A302F091A40280818068808352
:10127000E091A302F091A40280818F7D808388EEAB
:10128000C82E83E0D82EE12CF12C86E00E94360394
:101290008C019093900280938F0287E00E94360326
:1012A000EC0190938E0280938D0288E00E943603B9
:1012B00090938C0280938B0289E00E943603909376
:1012C0008A02809389028AE00E9436039093880202
:1012D000809387028DE00E9436039093860280936C
:1012E000850285E30E9436039093840280938302F3
:1012F0008BE20E943603909382028093810260E029
:101300000130110509F0DBC081E00E94E90561E0D0
:1013100082E30E945F0361E088E10E945F032197FE
:1013200019F50E94400584E492E00E94A20461E065
:1013300080E00E94E9050E941904A70196010E941D
:10134000340DCA01B9014AE00E945E040E942904DA
:1013500088E492E00E94A204809100029091010230
:101360000E94FE050E94E30380918B0290918C0203
:10137000019729F50E94400580E592E00E94A204B1
:1013800061E080E00E94E9050E941904A70196012E
:101390000E94340DCA01B9014AE00E945E040E9415
:1013A000290488E492E00E94A204809100029091B6
:1013B00001020E94FE050E94E3030E94270680911D
:1013C000890290918A02019729F50E94400586E5DD
:1013D00092E00E94A20461E080E00E94E9050E9480
:1013E0001904A70196010E94340DCA01B9014AE00F
:1013F0000E945E040E94290488E492E00E94A204F4
:1014000080910002909101020E94FE050E94E30378
:101410000E9427068091870290918802019719F512
:101420000E9440058BE592E00E94A20461E080E00A
:101430000E94E9050E941904A70196010E94340D3B
:10144000CA01B9014AE00E945E040E94290488E4AE
:1014500092E00E94A20480910002909101020E94F9
:10146000FE050E94E3038091850290918602019718
:1014700019F50E9440058BE692E00E94A20461E00B
:1014800080E00E94E9050E941904A70196010E94CC
:10149000340DCA01B9014AE00E945E040E94290489
:1014A00088E492E00E94A2048091000290910102DF
:1014B0000E94FE050E94E3030E949E02E6CE88E1A0
:1014C0000E945F0360E081E00E94E9050E94400500
:1014D00081E792E00E94A2040E94E30360E082E3BD
:1014E0000E945F03E9CF5058BB27AA270E948B0AAE
:1014F0000C94FE0B0E94F00B38F00E94F70B20F0CA
:1015000039F49F3F19F426F40C94ED0B0EF4E0959A
:10151000E7FB0C94E70BE92F0E940F0C58F3BA1766
:10152000620773078407950720F079F4A6F50C94F9
:10153000310C0EF4E0950B2EBA2FA02D0B01B90142
:1015400090010C01CA01A0011124FF27591B99F039
:10155000593F50F4503E68F11A16F040A22F232F45
:10156000342F4427585FF3CF469537952795A79595
:10157000F0405395C9F77EF41F16BA0B620B730B3C
:10158000840BBAF09150A1F0FF0FBB1F661F771FAD
:10159000881FC2F70EC0BA0F621F731F841F48F462
:1015A000879577956795B795F7959E3F08F0B0CFEB
:1015B0009395880F08F09927EE0F979587950895D2
:1015C0000E94C30B08F481E008950E94F90A0C946C
:1015D000FE0B0E94F70B58F00E94F00B40F029F42C
:1015E0005F3F29F00C94E70B51110C94320C0C94D2
:1015F000ED0B0E940F0C68F39923B1F3552391F37F
:10160000951B550BBB27AA2762177307840738F071
:101610009F5F5F4F220F331F441FAA1FA9F335D0CE
:101620000E2E3AF0E0E832D091505040E695001C82
:10163000CAF72BD0FE2F29D0660F771F881FBB1F3C
:10164000261737074807AB07B0E809F0BB0B802D1A
:10165000BF01FF2793585F4F3AF09E3F510578F046
:101660000C94E70B0C94320C5F3FE4F3983ED4F3F8
:10167000869577956795B795F7959F5FC9F7880F1A
:10168000911D9695879597F90895E1E0660F771F6C
:10169000881FBB1F621773078407BA0720F0621BFD
:1016A000730B840BBA0BEE1F88F7E09508950E9428
:1016B000170C88F09F5798F0B92F9927B751B0F0C1
:1016C000E1F0660F771F881F991F1AF0BA95C9F7C6
:1016D00014C0B13091F00E94310CB1E008950C9427
:1016E000310C672F782F8827B85F39F0B93FCCF3DA
:1016F000869577956795B395D9F73EF49095809543
:10170000709561957F4F8F4F9F4F0895E89409C062
:1017100097FB3EF490958095709561957F4F8F4F24
:101720009F4F9923A9F0F92F96E9BB279395F6953A
:10173000879577956795B795F111F8CFFAF4BB0FB8
:1017400011F460FF1BC06F5F7F4F8F4F9F4F16C01C
:10175000882311F096E911C0772321F09EE8872FA6
:10176000762F05C0662371F096E8862F70E060E062
:101770002AF09A95660F771F881FDAF7880F9695DB
:10178000879597F90895990F0008550FAA0BE0E87F
:10179000FEEF16161706E807F907C0F01216130633
:1017A000E407F50798F0621B730B840B950B39F473
:1017B0000A2661F0232B242B252B21F408950A26D9
:1017C00009F4A140A6958FEF811D811D089597F919
:1017D0009F6780E870E060E008959FEF80EC0895D7
:1017E00000240A9416161706180609060895002400
:1017F0000A9412161306140605060895092E03947A
:10180000000C11F4882352F0BB0F40F4BF2B11F4ED
:1018100060FF04C06F5F7F4F8F4F9F4F089557FD4C
:101820009058440F551F59F05F3F71F04795880F4E
:1018300097FB991F61F09F3F79F0879508951216E5
:1018400013061406551FF2CF4695F1DF08C0161691
:1018500017061806991FF1CF869571056105089442
:101860000895E894BB2766277727CB0197F9089559
:101870000E94C30B08F48FEF089516F00C94FF0C30
:101880000C94ED0B68940C94E70B0E94170CA8F3D2
:101890009923C1F3AEF3DF93CF931F930F93FF927E
:1018A000C92FDD2788232AF02197660F771F881F0D
:1018B000DAF720E030E040E85FEB9FE3883920F082
:1018C000803E38F021968F770E94740AE4EEF0E0B3
:1018D00004C00E94740AE1E1F1E00E940D0D8B0149
:1018E000BE01EC01FB2E6F5771097595771F880BB0
:1018F000990B0E94880B28E132E741E35FE30E94E5
:10190000A00CAF2D9801AE01FF900F911F91CF91C8
:10191000DF910E948B0A0C94FE0B0E94A00C0C9489
:10192000FE0B0E94F00B38F00E94F70B20F095237D
:1019300011F00C94E70B0C94ED0B11240C94320C69
:101940000E940F0C70F3959FC1F3950F50E0551F47
:10195000629FF001729FBB27F00DB11D639FAA2704
:10196000F00DB11DAA1F649F6627B00DA11D661F53
:10197000829F2227B00DA11D621F739FB00DA11D74
:10198000621F839FA00D611D221F749F3327A00D2E
:10199000611D231F849F600D211D822F762F6A2FCA
:1019A00011249F5750409AF0F1F088234AF0EE0F2F
:1019B000FF1FBB1F661F771F881F91505040A9F75C
:1019C0009E3F510580F00C94E70B0C94320C5F3F66
:1019D000E4F3983ED4F3869577956795B795F79598
:1019E000E7959F5FC1F7FE2B880F911D9695879510
:1019F00097F908950E94C30B880B990B08959F3F98
:101A000031F0915020F4879577956795B795880FB9
:101A1000911D9695879597F90895DF93CF931F931E
:101A20000F93FF92EF92DF927B018C01689406C0C6
:101A3000DA2EEF010E94A00CFE01E894A5912591F9
:101A4000359145915591A6F3EF010E948B0AFE0155
:101A50009701A801DA9469F7DF90EF90FF900F915A
:101A60001F91CF91DF910895A1E21A2EAA1BBB1BF3
:101A7000FD010DC0AA1FBB1FEE1FFF1FA217B3075A
:101A8000E407F50720F0A21BB30BE40BF50B661F70
:101A9000771F881F991F1A9469F760957095809534
:101AA00090959B01AC01BD01CF010895EE0FFF1F82
:101AB000881F8BBF0790F691E02D1994F894FFCF03
:101AC000C8000000000031029B01C8017E02F9013C
:101AD000D701EB0100000000F8059B012604250456
:101AE0006E616E00696E66006F7666002020436549
:101AF0006C736975732000496E64756374696F6EE9
:101B0000204F4E004672790020486561743A2000EB
:101B10007761746572006D696C6B007072656173DA
:101B200075726520636F6F6B657200637572727991
:061B3000002D2D2D000028
:00000001FF
